:020000040800F2
:10000000080600200D2A00088D2800088F28000807
:100010009128000893280008952800080000000097
:100020000000000000000000000000009728000809
:1000300099280008000000009B2800089D2800085F
:10004000352A0008392A00083D2A0008412A0008FC
:10005000452A0008492A00084D2A0008512A0008AC
:10006000552A0008592A00085D2A0008612A00085C
:10007000652A0008692A00086D2A0008712A00080C
:10008000A1280008A7280008752A0008792A000876
:100090007D2A0008812A0008852A0008892A00088C
:1000A0008D2A0008912A0008952A0008992A00083C
:1000B0009D2A0008A12A000800000000AD280008C1
:1000C000B32800080000000000000000A52A000876
:1000D00000000000A92A0008AD2A0008B92800087D
:1000E000B12A0008B52A0008000000000000000046
:1000F0000000000000000000000000000000000000
:1001000000000000000000000000000000000000EF
:100110000000000000000000B92A0008BD2A000805
:1001200000000000000000000000000000000000CF
:1001300000000000000000000000000000000000BF
:10014000C12A0008C52A000800000000C92A0008CA
:10015000CD2A0008D12A0008D52A0008D92A00088B
:10016000DD2A0008E12A000800000000000000006D
:10017000000000000000000000000000000000007F
:1001800000000000E52A000838B5040001D1012074
:1001900032BD04F14005687820B90021297020465D
:1001A00000F0AEFD00F044F86068216820F0706057
:1001B00008612068816821F400418160E0680128BD
:1001C000A0680CBF40F4004040F4044021688860FF
:1001D000E0680228206841680CBF41F4006121F406
:1001E000006141602068416841F0007141F40041C4
:1001F00041602068C16821F40041C16060692169E3
:10020000A2690143206841EA0221C160206AE169D4
:100210002268014311602068016841F0010101601A
:10022000002068602021697020630021A97032BD20
:1002300024206870206801684908490001607047FF
:100240008146CDF80090192301224FF40041304639
:1002500000F0E8BB2DE9F84F00F099F892469B4674
:1002600074D10A9D002D1CBF0B9F002F03D14FF4AA
:100270000071616068E02078012867D00121217059
:1002800000F02AFEFFF7DCFF00285DD1212060701E
:10029000402100F083F84FF0807300F0A7F800F0E1
:1002A0006AF80C994A4600F063F8B8B9BBF1010F3F
:1002B00008D031684FEA1A2088624A460C9900F04B
:1002C00057F858B930685FFA8AFAC0F828A0CDF814
:1002D000009000220C9B00F056F810B10020207016
:1002E00032E0708DFF25B0F5807F05D300F065F812
:1002F00000F041F80C9F02E000F057F8F8E74A469A
:10030000394600F035F800281ED100F022F880B1FF
:1003100089B271B900F033F8002815D1708DB0F5AD
:10032000807F02D300F049F801E000F03EF800F0D1
:1003300022F8708D0028E2D14A463946304600F056
:10034000D2FB00F041F802D0012000E00220BDE81D
:10035000F28F706A326801789162706A411C716232
:10036000708D411E7185308D411E3185708D7047B5
:10037000304600F087BB4146304600F04CBCCDF81B
:1003800000903B4600228021304600F04BBB0646E1
:1003900006F140048846607820287047A17000204C
:1003A00060607562778570637047728D328500205A
:1003B00000904FF00073D2B2704735850020009056
:1003C0004FF08073FF22704701000DD1326820206A
:1003D000D0613268DFF82C0053680340536020225C
:1003E00062700020A07020700800704702490091E0
:1003F0005FFA8BF27047000000200080022128463F
:1004000000F022BC00E800FE016821F48041016098
:10041000A86B7047016821F400410160E86B7047E8
:10042000026891691268436B002B18BF1847704728
:1004300038B501688A690B46D4051B6808D51D06C6
:1004400006D5446C44F0010444644FF48075CD61DA
:10045000510509D51C0607D5416C41F008014164DE
:100460004FF480640168CC61910509D51A0607D55F
:10047000416C41F0020141644FF400720168CA61AD
:10048000416C11F00B0F03D0BDE8344000F022BAEC
:1004900031BD204600F0ADBAF8B5054605F140047F
:1004A000E86A2378012B01D10220F2BD01238E06D8
:1004B000237005D5930603D5284600F004F96BE0B8
:1004C000CE06DFF808352BD5D70629D56A8DB2B907
:1004D0006278282A08BFB0F1007F03D1284600F0D7
:1004E000C7F959E06178292906D1984204D000F073
:1004F00055F800F05EF84CE000F050F84CE0296848
:100500001022CA610028626842F00402626018BFCB
:10051000B0F1807F40D12846616800F0DBF93BE014
:100520004E0715D5570713D5698D61B12A68516AF1
:100530006A6A1170696A4E1C298D6E624A1E2A858C
:10054000698D4A1E6A85698D31BB984224D020E0AE
:100550000B0705D5160703D5284600F02CF81BE03D
:10056000890719D5920717D5698D69B1686A2A6814
:1005700001789162686A411C6962688D411E6985D3
:10058000288D411E298507E0B0F1807F18BF002823
:1005900002D1284600F05EF807E00000296810202C
:1005A000C86170474021284694E100202070F2BDC8
:1005B000000028461DE22DE9F04100F047F82068D0
:1005C000697801F0280128293AD18669D0F8188085
:1005D0008268C7684FEA184101F0FE08E168360CEE
:1005E000022906F00106C2F3090207F0FE071AD13C
:1005F000D10908F0060301F006018B420BD1A9686E
:10060000491CA960A96802291ED10023AB600827F4
:10061000C7612B700EE04FF4004100F052F800204B
:1006200028703A4606E04FF4004100F04AF80020F6
:100630002870424631462046BDE8F04100F052BCE9
:100640000821C16100202870BDE8F081044604F152
:100650004005704738B5FFF7F9FF206801680022B0
:100660004B04AA7004D5016821F48041016005E0C3
:10067000090403D5026822F4004202606878292840
:100680000CD1282169702122226300F019F8002280
:100690002A702046BDE8324000F025BC68782A2840
:1006A0000DD12821697022202063022100F009F871
:1006B000002028702046BDE8324000F015BC31BD56
:1006C00001212046C0E22DE9F843054605F1400727
:1006D00028680668EC6A78782A6888462021D16103
:1006E000212818BF292804D100F0B7F821222A6355
:1006F00011E0222818BF2A2805D148F20201FFF78D
:100700007EFE222006E0282805D148F20301FFF7EB
:1007100076FE00202863286800F0A5F8DFF81C05A5
:1007200029684A6802404A60FFF743FF700403D516
:100730002868FFF769FE04E0300406D52868FFF753
:1007400069FE10B10068416869855FEA48700FD59D
:100750002968486A696A087028F00408686A421CB7
:10076000288D6A6220B1401E2885698D481E6885E3
:10077000688D18B1786840F0040078605FEAC8605E
:10078000DFF848922ED5F1062CD5688DD8B9787847
:10079000282808BFB4F1007F04D14146284600F064
:1007A00067F81FE0787829280AD14C4508D02868D6
:1007B0001021C161FFF7FDFE2846FFF74BFF11E056
:1007C000FFF7ECFE0EE0FFF7E9FE002C786840F042
:1007D0000400786018BFB4F1807F03D1284679689F
:1007E00000F078F80020B87000216963786850B193
:1007F0007968FFF7D8FE787828282CD1414628461A
:10080000BDE8F44334E0E86A48450ED02846FFF7D7
:1008100021FFC5F82C9020207870002129633970C1
:100820002846BDE8F24300F060BB7878222809D161
:10083000202179700020286338702846BDE8F243F3
:1008400000F052BB20207870296339702846BDE83B
:10085000F24300F048BBBDE8F18348F201012846AD
:10086000F2E100283068416841F40041416070477E
:1008700038B504465548E062002204F14005226381
:1008800020206870AA70490762630CD500F01AF83E
:10089000626240B1401E2085618D481E6085696896
:1008A00041F00401696048F20301FFF70AFF206884
:1008B0001022C261002129702046BDE8324000F0BC
:1008C00014BB00002068416A606A0170616A208D73
:1008D0004A1C704770B5FFF7B9FE002268783B4BA1
:1008E000AA70E36262856B681943696028281CBF9F
:1008F00029282A2807D10321FFF7E3FE28226A705E
:10090000DFF83C031BE048F20301FFF7DAFEFFF7D4
:10091000C0FD6878602811D0202169702068816945
:100920008A060BD58169CA0605D51021C1616868A0
:1009300040F00400686020202168C86100206063E6
:10094000216BA06B0FF2C906D0B1112918BF212964
:1009500016D1206801684A0403D5016821F480415A
:100960000160A06B00F08BFB012829D0A06B4663CF
:1009700000212970A06B00F001FB28B3A06B1BE0E5
:10098000E06BE8B1122918BF222919D1206801684B
:100990000A0403D5016821F400410160E06B00F016
:1009A0006EFB01280CD0E06B466300212970E06BE0
:1009B00000F0E4FA40B1E06B416BBDE870400847DD
:1009C0002046BDE8704003E070BD00000000FFFF5E
:1009D00000F130014A7C602A06D120234B740022AA
:1009E0000A600A7400F05EBB00220A600A7400F01C
:1009F0005ABB006881698A0744BF0021816281690E
:100A0000CA0703D4816941F0010181617047000088
:100A1000406A816B09B100224A63C16B09B10022AF
:100A20004A63D5E72DE9F041069F05460E469046FC
:100A30001C46286881693140B1420CBF012000206A
:100A400040451DD13A4600F03FF888B914F1010F36
:100A5000EFD000F041FAC01B844201D3002CE8D152
:100A6000286881693140B1420CBF0120002002E0BA
:100A70000120BDE8F0814045DBD100F028F8F7E720
:100A80000020F6E770B505460C46164628688169D1
:100A9000880716D400F017F818B914F1010FF5D033
:100AA00001E0012070BD00F017FA801B844201D3E1
:100AB000002CEBD1286881698807E7D400F007F89B
:100AC000EFE7002070BD32462146284628E005F1B8
:100AD00040002022416841F0200141604270002125
:100AE00081700170704770B505460C46164628683F
:100AF0008169880612D4FFF7E6FF08B1012070BDB6
:100B000000F0EAF9801B844201D3002CEFD1286861
:100B100081698806EBD4FFF7DAFFEFE7002070BDAC
:100B20002DE9F84304460025206883690026904695
:100B3000DA0604F1400739D51023C36189462BE05A
:100B400029002DD119F1010F26D000F0C5F9A0EB35
:100B50000800814502D3B9F1000F1DD1206841681A
:100B6000BA7883691B040AD5490408D4202A06D020
:100B7000416841F48041416000F0AEF98046206850
:100B80008169880608D400F0A7F9A0EB08001A28AC
:100B9000F5D346F020060125206881698A06CFD565
:100BA0000DB92021C16146F0040601252068816944
:100BB000CA0505D54FF4807346F00106C3610125CF
:100BC000480506D520684FF4806246F00806C261E9
:100BD0000125880507D520684FF4007146F002060C
:100BE000C161012501E028000CD02046FFF701FF7C
:100BF00000F00BF8202079680E437E6078700021A9
:100C0000B97039702846BDE8F28321680B484A68FC
:100C100002404A60704770B50068049C4568094E00
:100C2000C1F3090141EA0241194346EA54562143FE
:100C3000B54321F000412943416070BD00E800FE4A
:100C400099040008FF63FF030022CB0707D590F843
:100C50004130422203F02803282B18BFF2228B07D1
:100C600009D590F8413003F0280342F04402282BC4
:100C700018BF42F0B0020B0448BF42F0B80210297E
:100C800008BF42F0900208D0202908BF42F020029D
:100C900003D0402908BF42F040020068016821EA01
:100CA0000202026070470EE00268436802440830A6
:100CB0005FEAC37C44BF4B445B1E52F804CB43F84D
:100CC00004CB091FF9D150F8041B0029ECD170475F
:100CD000784882B0016841F001010160026802F0C9
:100CE000010200920099426842F0805242604068DE
:100CF00000F0805000900098072002B000F0E1B9A9
:100D000070B586B000F0C5F821686B48814273D198
:100D10006A4D6B4E296841F400312960286800F45F
:100D2000003005900598296841F4802129604FF42E
:100D300000412A6802F4802205921222059800914F
:100D40000192012102910322042104910392694638
:100D50004FF0904000F00AFA122101910122029214
:100D60008020032100900391042204926946554893
:100D700000F0FCF9A86840F40010A8601021A868F1
:100D8000514D00F400100590059871600020B0608E
:100D9000802130617061B061F061F1603560304692
:100DA00000F0A4F808B100F0B2FCA663746205F18B
:100DB0001400464E306080200021F0607160B16008
:100DC00031617161B161F161304600F08FF808B1B5
:100DD00000F09DFCE6637462002200211F2000F0F9
:100DE0007DF91F2000F097F900220021202000F05B
:100DF00075F9202000F08FF906B070BD10B586B0EF
:100E000000F047F82068324A2C4990421AD188688D
:100E100040F400308860886800F400300590059840
:100E20000A6842F400320A600222096801F40031C3
:100E300005910C21059800F032F84FF0904000F039
:100E400095F924E0234A904221D1886840F480201B
:100E50008860886800F48020059005980A6842F44C
:100E600080220A600222096801F4802105914FF472
:100E700040610598134800F012F800F077F900225D
:100E80000021272000F02AF9272000F044F906B0BD
:100E900010BD044614220021684600F03ABC0091BF
:100EA00001920021029103220721049103926946D5
:100EB0007047000018100240005400401410024017
:100EC0007C010020000400486C000240C0010020AA
:100ED000004400400048004001484068704700BF9F
:100EE00000000020704770477047704710B504003D
:100EF00001D1012010BD022084F82100226813686E
:100F00006068A1686FF30D130343E0680B43216928
:100F1000034360690B43A1690343E0690B43034347
:100F20001360204600F0AEF80021A163012084F890
:100F3000210084F82010002010BD10B550B190F8A9
:100F40002110022900F1380206D004231360002189
:100F500080F82010012010BD00F030F80C68640803
:100F600064000C60916852688B405360012100223C
:100F700080F8211080F82020002010BD38B590F8AE
:100F800021100024022900F1340203D00420506013
:100F9000012411E000F012F80D686D086D000D607D
:100FA000D16895688B406B60012180F8211080F832
:100FB0002040116801B18847204632BD01680B68A6
:100FC00023F00E030B60012301687047F8B500F1B0
:100FD0002802042351690C6801680D68966903FAB8
:100FE00006F73C420FD06F070DD50C68A50603D459
:100FF0000C6824F004040C6000F03BF85168B9B3AD
:10100000BDE8F4400847022303FA06F73C4215D036
:10101000AF0713D50C68A50606D40C6824F00A04A3
:101020000C60012180F8211000F023F8002180F8E5
:1010300020101168E1B1BDE8F4400847082303FA25
:1010400006F6344214D02B0712D50C6824F00E0497
:101050000C60012300F00DF80121116180F82110CE
:10106000002180F82010916811B1BDE8F4400847D4
:10107000F1BD916954698B4063607047000090F83E
:1010800021007047026805498A181423B2FBF3F364
:101090009B0003490364C16370470000F8FFFDBF74
:1010A00000000240704770470901020002D428483E
:1010B00081547047274B02F00F021A4402F8041CB7
:1010C0007047254B19684FF6FF020002114000F4EB
:1010D000E0600843214908431860704770B51E4B13
:1010E0001C68C4F302230124C3F10705052D2EBF9C
:1010F0000F2504FA05F56D1E1E1D072E34BF0023B3
:10110000DB1E2940994004FA03F3BDE870405B1EE2
:101110001A401143C8E7010007D4012200F01F0163
:101120000F4B8A40400943F820207047401EB0F121
:10113000807F01D3012070470A490B4A4860002391
:10114000F02010708B6007200860002070470000BE
:1011500000E400E018ED00E00CED00E00000FA050E
:1011600000E100E010E000E023ED00E02DE9F84FA1
:1011700000276B4A6B4B4FF00F0805460E4638E0D0
:10118000694CA54214BF052403248C40674944EAF6
:101190000E0441F82C40C143D2F808C0746801EA3B
:1011A0000C0CE40248BF40EA0C0CC2F808C0D2F8AC
:1011B0000CC0746801EA0C0CA40248BF40EA0C0C95
:1011C000C2F80CC0D2F804C0746801EA0C0CA40385
:1011D00048BF40EA0C0CC2F804C0D2F800C001EAD3
:1011E0000C0C7168C90348BF40EA0C0CC2F800C07F
:1011F0007F1C316831FA07F000F08A800124BC407E
:1012000014EA0100F4D04FEA470C032101FA0CF173
:101210006FEA010E716801F00309B9F1010F1CBFFB
:1012200001F00301022912D1A968D6F80C900EEA48
:10123000010109FA0CF949EA0101A960696821EA8A
:1012400004047168C1F30011B9400C436C60B9002B
:10125000347904F00304032C21D0EC68D6F808900C
:101260000EEA040409FA0CF949EA0404EC60347942
:1012700004F00304022C12D1FC0805EB840401F0F5
:101280001C09D4F820A008FA09FB2AEA0B0AD6F8B0
:1012900010B00BFA09F949EA0A09C4F820902C6841
:1012A0000EEA040E347904F0030404FA0CF444EA60
:1012B0000E0CC5F800C0746814F4403F98D0D3F801
:1012C00000C01A4C4CF0010CC3F800C04FEA970C58
:1012D000D3F800E00EF0010ECDF800E001F00C01B3
:1012E000DDF800E054F82C4008FA01FE24EA0E0E66
:1012F000B5F1904F08BF002409D00D4CA54208BF9E
:10130000012404D00B4CA5427FF43AAF02243CE701
:10131000BDE8F18F0AB181617047816270470000BA
:101320000004014018100240000C00480800014071
:10133000000400480008004838B586B000F0F4F911
:1013400000F0B7F81422002101A800F0E2F9D14C16
:10135000206840F400202060216801F40021009101
:101360000098216841F480012160226802F4800223
:1013700000920098216841F400312160226802F453
:10138000003200920098216841F4802121602021E0
:10139000226802F480220092002200984FF09040D0
:1013A000FFF7B8FF4FF400504FF404110190029181
:1013B0000022039201A9B848FFF7D8FE202101912D
:1013C0000122002103910491029201A94FF0904063
:1013D000FFF7CCFE206840F0010020600022216869
:1013E000AE4C01F001010091002100981020FFF7A0
:1013F00075FE1020FFF78FFE002200211120FFF75D
:101400006DFE1120FFF787FEA548A649A060E160A8
:10141000002020610121A061E06120626062A06281
:10142000616104F10800FEF7AFFE08B100F06FF94A
:10143000002104F1080000F089F908B100F067F913
:10144000002104F1080000F096F908B100F05FF9FE
:101450009548964901604FF4164200230C214260E2
:101460008360C360036141618361C361036243625E
:1014700000F0ACF908B100F04AF9854D8C482860BD
:101480004FF4E1310C20002268616960AA60EA60D3
:101490002A61AA61EA612A626A62284600F096F926
:1014A00008B100F034F902222146284600F004FA7F
:1014B000FEE780B596B0282200210CA800F029F99B
:1014C00014220021684600F024F91C22002105A8FE
:1014D00000F01FF9022101220C911092102102222A
:1014E0001191139200214FF46012149115920CA8DF
:1014F00000F08AFE08B100F00AF9022101910F20E4
:101500004FF4806100900022039102920492022124
:10151000684601F001F808B100F0F9F82021002236
:101520000591089205A801F0C9F808B100F0EFF89C
:1015300017B000BD3EB5564C584D022229462046F4
:1015400000F0BAF92B78012B40F0A08069780120D7
:10155000012968711AD0022928D003292ED0042924
:1015600033D0052938D006293DD0072945D0082990
:101570004CD0092953D00A295AD00B2961D00C2903
:1015800068D0982974D099296DD037BD0820A871EA
:1015900002210122A81D02910192009002228421C1
:1015A00005F10800FEF756FE002022E00820A87191
:1015B00000F093F800F09CF805201AE0102000F0ED
:1015C0008AF800F095F8092013E0182000F083F85D
:1015D00000F08EF80C200CE0202000F07CF800F0E9
:1015E00087F80F2005E0282000F075F800F080F85B
:1015F00014200121A870E97040E0802000F06BF811
:1016000000F076F8052000F055F837E0882000F06B
:1016100062F800F06DF8092000F04CF82EE0902000
:1016200000F059F800F064F80C2000F043F825E0D1
:10163000302000F050F800F05BF80D2000F03AF890
:101640001CE0382000F047F800F052F80E2000F0BF
:1016500031F813E0402000F03EF800F049F80F2088
:1016600000F028F80AE01E2000F028F8992003E096
:101670001D2000F023F89820A870E8700222A91C11
:10168000204603B0BDE8304000F0E7B837BD0000A9
:10169000980000201410024000080048200100209B
:1016A000005400402B1D200010000020004400408A
:1016B000004800400221A870E9707047A87102211B
:1016C0000122A81D0291019200901822842105F1A7
:1016D0000800FEF7BFBDA87102210122A81D0291DA
:1016E000019200901922842105F10800FEF7B2BD95
:1016F0000120A87102210122A81D029101920090EF
:1017000001231822842105F10800FEF7A3BD72B65B
:10171000FEE710B5044610460A460146204601F091
:101720005DF8204610BD000080B50748016841F013
:10173000100101600320FFF7C4FC002001F082F8D3
:10174000FFF7C6FA002002BD0020024030B500F1CC
:1017500040025378202B0CD11478012C09D000F0D2
:101760001DF824F480541C6003681D682943196027
:1017700020E0022030BD30B500F140025378202B2C
:101780000AD11478012C07D000F008F824F4706412
:1017900044EA01241C600DE0022030BD01231370D7
:1017A0002424547003681D686D086D001D60036873
:1017B0001C6870470068016841F001010160202049
:1017C000507000211170002030BD000038B50400B9
:1017D00001D1012032BD04F17805686808B900F034
:1017E00017F800F01AF808B100F031F800F02CF802
:1017F000012804D000F004F821F02A0116E032BDDF
:101800002068416821F490414160206881687047F8
:10181000002129702046FFF7F1BA24206860206873
:101820000168490849000160606A7047816000F002
:1018300004F8BDE8324000F0D0BA2068016841F0F9
:101840000101016020467047204600F0C9B92046DA
:1018500000F060BA284600F00DBB10B500F150034F
:10186000DC6A202C26D109B1140001D1012010BD61
:10187000C1641A805A800021D96100225A63212153
:10188000D9628268B2F5805F04BF0169002919BF7F
:10189000DFF85C14D961DFF85C24DA61016851E893
:1018A000002F0B4642F0800243E800210029F5D1C9
:1018B000002010BD022010BD38B50346D3F88000CB
:1018C00020280AD109B1100001D1012032BD00F059
:1018D00006F8BDE8384000F017BB022032BD0020FA
:1018E00018661C686068040209D5186850E8004F43
:1018F000054644F0806445E800400028F5D11846CC
:101900007047286800F1080151E8001F490800F1FC
:101910000803490043E8001000287047F8B5054661
:1019200040F60F0C2A68D369104613EA0C0F0668BC
:10193000976805F1580406F0200003F020010BD150
:10194000002918BF00280ED02169002900F0298144
:101950002846BDE8F44008475FEAC77C04D4DFF8B6
:1019600098E316EA0E0F78D05FEAC37C48BF5FEABF
:10197000C65E07D54FF0010CC2F820C0E26A42F003
:101980000102E2629A070AD5FA0708D5D5F800E005
:101990000222CEF82020E26A42F00402E2625A07F4
:1019A0000AD5FA0708D5D5F800E00422CEF82020A1
:1019B000E26A42F00202E2621A070BD508B9FA079E
:1019C00008D5D5F800C00827CCF82070E26A42F0AC
:1019D0000802E2621A0509D5730107D52E684FF493
:1019E00000623262E26A42F02002E262E26A002AA7
:1019F00032D0002918BF002803D0216909B1284638
:101A00008847E06A29688A68510602D410F0280FD6
:101A10001DD0284600F0D2FA28688168480611D502
:101A200000F0CAF8FCD1E06960B10FF209614163CE
:101A3000E069FFF7A3FA00280ED0E069416BBDE82A
:101A4000F44008472846BDE8F24000F01BBF284696
:101A500000F018FF0020E062F1BDA068012876D1F7
:101A6000D80674D5F10672D51020106229688868EE
:101A700041063AD5E1690868406880B20028EBD099
:101A800022889042E8DA60808869202825D0296879
:101A900051E8001F2A6821F4807100F0E7F9F6D1BF
:101AA000FFF72FFFFCD1286800F1080151E8001F63
:101AB00000F1080321F0400100F07AF8F3D1202072
:101AC000A0620021A16000F085F821F0100100F073
:101AD000CDF9F8D1E069FFF730FA0220E060218803
:101AE0006088091A89B228462DE0228861886088BA
:101AF000511A00281CBF88B2002852D02A4610680C
:101B000050E8003F054623F4907300F04BF8F6D1FF
:101B100000F089FA00F108065B0046E80030002872
:101B2000F6D12020A0620023A3602361136853E84C
:101B3000003F156823F0100300F034F8F6D10220BE
:101B4000E06089B21046BDE8F44000F09CBED802C7
:101B500009D5790207D54FF4801010622846BDE8F8
:101B6000F24000F091BE180607D5310605D561692F
:101B7000B9B12846BDE8F4400847580611D57106AA
:101B80000FD500F027F821F0400100F06FF9F8D1EF
:101B900020206062002161612846BDE8F24000F02B
:101BA00074BEF1BD45E800300028704721F0800187
:101BB00043E8001000287047296801F1080252E844
:101BC000001F286800F1080321F0400143E80010DD
:101BD00000287047286850E8001F02467047000040
:101BE00070B50446454822681368A168034020691F
:101BF0000B4361690343E0690B4303431360002512
:101C00005168E06821F44051014351609368A16933
:101C1000206A23F430630B43394903438A429360BB
:101C20000FD13848026802F00302032A11D8DFE816
:101C300002F00E04060202210CE004210AE0082151
:101C400008E0314882421CBF3048824201D1002165
:101C500000E01021E3692E48B3F5004F4FF6F0760F
:101C60004FF4004221D131B1022908D0042917D004
:101C7000082918D036E000F0EDFC002833D0616868
:101C80004A0802EB4002B2FBF1F0A0F11001B142B0
:101C900028D20640C0F3420006432068C66022E016
:101CA00000F0BAFCE9E71046E9E731B1022907D0B4
:101CB000042912D0082913D014E000F0CBFC90B115
:101CC000616800EB5100B0FBF1F0A0F11001B142EE
:101CD00008D2226880B2D06005E000F09DFCEEE7FB
:101CE0001046EDE701250020A066E066284670BD9D
:101CF000492000087120000820010004F369FFEF6B
:101D000000380140301002400044004000480040CC
:101D100000127A0090F824100A0706D5026853686A
:101D2000416B23F400430B43536090F82410CA071F
:101D300006D502685368816A23F400330B4353606D
:101D400090F824108A0706D502685368C16A23F404
:101D500080330B43536090F824104A0706D502687D
:101D60005368016B23F480230B43536090F82410D5
:101D7000CA0606D502689368816B23F480530B432F
:101D8000936090F824108A0606D502689368C16BA8
:101D900023F400530B43936090F824104A0610D5A7
:101DA00002685368016C23F480130B435360036C87
:101DB000B3F5801F05D15368416C23F4C0030B4376
:101DC000536090F824100A0606D501684A68806CB2
:101DD00022F4002202434A607047F8B5054605F137
:101DE00078040020E0606FF07E47FFF775F8064644
:101DF000286801680A0711D50097334600224FF47E
:101E00000011FFF727FD48B1FFF7E4FE21F0800144
:101E100000F02CF8F8D12020606017E028680168F5
:101E20004A0717D50097334600224FF48001FFF789
:101E300011FD78B1FFF7CEFE21F4907100F016F895
:101E4000F8D1FFF75EFDFCD12020A06000212170B9
:101E50000320F2BD202060602021A16000202866C0
:101E6000002169662070F2BD21F4F07142E8001093
:101E7000002870472DE9F041069C05460E46904625
:101E80001F462868C1693140B1420CBF01200020C3
:101E9000404537D114F1010FF3D0FFF71DF8C01BF7
:101EA000844200D314B90320BDE8F081286801689A
:101EB0004A07E6D5802E18BF402EE2D0C169080738
:101EC00004D42968C8690105DBD50DE02A6808201B
:101ED0001062284600F072F805F178000821C16010
:101EE000002202700120DFE729684FF400600862D9
:101EF000284600F063F805F178002021C160002237
:101F00000270D0E70020CFE720B5034600205965D6
:101F100003F158010A804A800861FF229868B0F5F1
:101F2000805F04D1186990B940F2FF120FE018B930
:101F3000186960B17F2007E0B0F1805F06D11869B1
:101F400008B97F2203E03F20888001E000228A80D8
:101F50000020C86222228A62186800F1080252E852
:101F6000002F00F1080542F0010245E8002000289A
:101F7000F2D19868B0F5805F04BF186900280DD1D0
:101F80000FF295120A61186850E8001F024641F0EE
:101F90002001FFF76BFFF6D1002020BD0FF22912C0
:101FA0000A6118690028EED0196851E8001F1A6804
:101FB00041F49071FFF75AFFF6D1EDE710B500F04C
:101FC0000EF8FCD100F015F8FCD1016E00F01EF8FF
:101FD0002021C0F8801000220266826610BD0168D0
:101FE00051E8002F0B4622F4907243E800210029AB
:101FF0007047016801F1080252E8002F520801F110
:102000000804520044E8002100297047012909D141
:10201000026852E8002F036822F0100243E8002112
:102020000029F5D17047106800F1080353E8003F1C
:102030005B087047406A00F1520100220A810023C8
:102040000B8000F01FBC0000C16F21290FD1B0F838
:10205000521001B922E0C16C03680A781A85C16C7C
:102060004A1CC264B0F852104A1EA0F852207047B1
:10207000C16F212911D1B0F8521001B90EE0C16C25
:1020800003680A88C2F308021A85C16C8A1CC264FC
:10209000B0F852104A1EA0F852207047026852E869
:1020A000002F036822F0800243E800210029F5D1C7
:1020B000016851E8002F0B4642F0400243E800213E
:1020C0000029F5D17047000038B500F04DF81ED159
:1020D0008B8C9188446D0B402370416D4B1C00F03C
:1020E00049F818D100F04DF800F060F8FCD100F08C
:1020F0006AF80BD10023936000F04EF8FCD1016820
:10210000CB69DC0644BF10230B6273E077E088697B
:1021100040F00800886131BD38B500F025F81ED1C7
:102120008B8C9188446D0B402380416D8B1C00F09B
:1021300021F818D100F025F800F038F8FCD100F0B3
:1021400042F80BD10023936000F026F8FCD101681F
:10215000CB69DC0644BF10230B624BE04FE088697B
:1021600040F00800886131BD00F158020168936AAF
:10217000222B7047436551884B1E5380518800299C
:102180007047036853E8003F046823F4907344E801
:1021900000310029F5D17047016851E8003F0C4635
:1021A00023F0100344E8003100297047016801F171
:1021B000080353E8003F5B0801F108055B0045E8B0
:1021C0000031002970472021916200231361002112
:1021D000D160036859680B0209D5016851E8003FD6
:1021E0000C4623F0806344E800310029F5D1916862
:1021F000012970471188BDE8344000F044BBBDE8B8
:102200003240FFF797B900002DE9F843040019D0D8
:102210002078DFF85854C10716D5686800F00C0024
:1022200004280AD0686800F00C00082802BF68681B
:1022300000F48030B0F5803F41D100F0E8F918B1EA
:102240006068002800F05F812078DFF83064810743
:102250001BD5686810F00C0F07D0686800F00C0000
:1022600008286CD16868C10369D42868C0F34000AD
:1022700000281CBF2069012840F045812968606959
:1022800021F0F80141EAC00129602178080740F1F6
:102290008C80A069DFF8E813002878D001220A605A
:1022A000FEF71AFE0746686AC0F3400000287CD19A
:1022B000FEF712FEC01B0228F5D9032026E1606854
:1022C000B0F5803F04D1286840F48030286014E0E5
:1022D00008B928680AE0B0F5A02F286806D140F4B4
:1022E00080202860296841F4803105E020F48030A6
:1022F0002860296821F480212960E86AA168000922
:1023000041EA0010E862606860B1FEF7E5FD06464C
:1023100000F07DF9002897D1FEF7DEFD801B6528CF
:10232000F6D3CAE7FEF7D8FD064600F070F900289C
:102330008AD0FEF7D1FD801B6528F6D3BDE7206962
:10234000B0B101213160FEF7C7FD07462868C0F330
:10235000400028B9FEF7C0FDC01B0228F6D9ACE743
:102360002868616920F0F80040EAC10028608CE725
:102370003060FEF7B1FD07462868C0F34000002832
:1023800083D0FEF7A9FDC01B0228F5D995E70860A8
:10239000FEF7A2FD0746686AC0F3400028B1FEF7C9
:1023A0009BFDC01B0228F6D987E72078410763D53B
:1023B000E8690027C10009D4E86940F08050E8616D
:1023C0000127E86900F0805000900098DFF8B4829F
:1023D000D8F80000C10513D4D8F8000040F480708C
:1023E000C8F80000FEF778FD8146D8F80000C10566
:1023F00006D4FEF771FDA0EB09006528F5D35CE774
:10240000E068012808D008B9286A09E00528286A88
:1024100006D140F004002862286A40F0010005E07F
:10242000400840002862286A20F00400286241F237
:102430008938E06868B1FEF74FFD8146286AC0F32D
:102440004000A0B9FEF748FDA0EB09004045F5D3D8
:1024500033E7FEF741FD8146286AC0F3400030B102
:10246000FEF73AFDA0EB09004045F5D325E71FB183
:10247000E86920F08050E861E069002845D069688B
:1024800001F00C01082931D0022822D100F040F8D7
:1024900007462868C0F3406028B1FEF71DFDC01B49
:1024A0000228F6D909E76868616A226A20F4741084
:1024B000084310436860012000F02BF804462868A8
:1024C000C0F3406008BBFEF707FD001B0228F6D9E9
:1024D000F3E600F01DF804462868C0F34060A0B1A0
:1024E000FEF7FAFC001B0228F6D9E6E601280AD01E
:1024F0006868226A00F48031914202BF00F47010D3
:10250000616A884201D0012000E00020BDE8F2832A
:1025100000203066FEF7E0BC2DE9F041040088465B
:1025200045D0594E306800F00700404502D200F017
:1025300064F83CD120784D4D810705D56A68A068C4
:1025400022F0F00202436A602178C80727D561684B
:10255000012902D100F05BF804E00229286803D1C8
:10256000C0F3406018B922E0C0F34000F8B16868D9
:10257000800841EA80016960FEF7AEFC07466868A2
:10258000616800F00C00B0EB810F08D0FEF7A4FCEE
:10259000C01B41F289318842F1D303202BE030681F
:1025A00000F00700804504D200F027F801D0012098
:1025B00021E02078410705D56A68E06822F4E062EE
:1025C00002436A602178080706D56968206921F40A
:1025D000605141EAC001696000F01EF86A682B4949
:1025E000234BC2F30312895CC8401860224800687C
:1025F00000F028F90020BDE8F0813168C90848EAF8
:10260000C1013160306800F007004045704728681C
:10261000C0F340407047000010B51D490A6802F041
:102620000C00082814D100BF1CA3C2F38340D203BE
:10263000185C896A09D500BF1CA40E4B01F00F017C
:10264000625CB3FBF2F2504310BD1249484310BD27
:10265000084810BD06480E4A006813680E49C3F3C7
:102660000222FFE7895CC84070470000001002406A
:102670000C00002000127A000800002000004242F6
:102680008004424200700040002002409829000867
:102690000410024000093D002C2A00080203040532
:1026A000060708090A0B0C0D0E0F10100102030497
:1026B00005060708090A0B0C0D0E0F102DE9FC4149
:1026C000054600242868424EC10350D53068C10039
:1026D00009D4306840F0805030600124316801F046
:1026E0008051009100983B4F3868C10511D438687B
:1026F00040F480703860FEF7EFFB80463868C10513
:1027000007D4FEF7E9FBA0EB08006528F6D3032009
:102710005BE0706810F440701EBF696801F440719E
:10272000884219D02C49706801220A60002320F4E5
:1027300040700B607060C0070ED5FEF7CDFB0746FA
:102740007068C0F3400038B9FEF7C6FBC01B41F209
:1027500089318842F4D3DAE77268686822F44072FB
:10276000024372601CB1306820F0805030602978DC
:10277000C80705D57169A868890840EA81017161B7
:102780002978880605D57169E86821F010010143B0
:1027900071612978080605D53169286921F4F87135
:1027A000014331612968C80405D57169686921F45C
:1027B0008071014371612968480405D57169A86970
:1027C00021F48051014371610020BDE8F6810000D1
:1027D0001C100240007000404004424262F30F228D
:1027E00062F31F42401810F0030308D0C91A1FD328
:1027F000DB0748BF00F8012D28BF20F8022D130089
:1028000030B414461546103928BF20E93C00FAD8E8
:10281000490728BF20E90C0048BF40F8042D890073
:1028200028BF20F8022D48BF00F8012D30BC7047AA
:10283000C91818BF00F8012DCB0728BF00F8012DDB
:102840007047000038B50D4D0D4B2A7804464FF403
:102850007A711868B1FBF2F2B0FBF2F0FEF766FC99
:1028600050B9102C08D2002221464FF0FF30FEF75D
:1028700035FCAC60002032BD012032BD00000020DC
:102880000C0000207047704770477047FEE7FEE776
:10289000FEE7FEE7FEE770477047704700F018B8A4
:1028A0000748FEF793BB0748FEF790BB0648FDF7C5
:1028B000B7BD0548FDF7BCBD0448FFF72FB80000C1
:1028C0007C010020C0010020280100209800002089
:1028D0000248416802788A18426070470000002070
:1028E00030B4002512E050F8042BD30744BF4A440B
:1028F000521E091F042942F8045BFAD213468C07C2
:1029000044BF15809B1CC90748BF1D7050F8041BAD
:102910000029E8D130BC704710B507497944183117
:10292000064C7C44163404E00A68081D11448847AC
:102930000146A142F8D110BD2C0000004C0000005F
:102940004EF68851CEF20001086840F4700008602D
:10295000BFF34F8FBFF36F8F4FF00170E1EE100A9E
:10296000704700007DFFFFFFF40100001000002011
:102970000000000033E3FFFF10000000A000000093
:1029800000000020000000000248016841F47001CE
:102990000160704788ED00E00000000000000000CA
:1029A000010203040607080900F00DF8002801D011
:1029B000FFF7B2FFAFF300800020AFF30080FEF717
:1029C000BBFC00F002F80120704700F001B80000E5
:1029D0000746384600F002F8FBE7000080B5AFF389
:1029E0000080024A11001820ABBEFBE7260002005F
:1029F0000548014603B4684680F30988AFF30080B8
:102A0000FFF79EFFFFF7D0FFA5EDF5FE01488047D9
:102A10000148004789290008F12900080100000049
:102A2000000000001000000000127A00000000000A
:102A300001020304FFF7FEBFFFF7FEBFFFF7FEBF73
:102A4000FFF7FEBFFFF7FEBFFFF7FEBFFFF7FEBFBA
:102A5000FFF7FEBFFFF7FEBFFFF7FEBFFFF7FEBFAA
:102A6000FFF7FEBFFFF7FEBFFFF7FEBFFFF7FEBF9A
:102A7000FFF7FEBFFFF7FEBFFFF7FEBFFFF7FEBF8A
:102A8000FFF7FEBFFFF7FEBFFFF7FEBFFFF7FEBF7A
:102A9000FFF7FEBFFFF7FEBFFFF7FEBFFFF7FEBF6A
:102AA000FFF7FEBFFFF7FEBFFFF7FEBFFFF7FEBF5A
:102AB000FFF7FEBFFFF7FEBFFFF7FEBFFFF7FEBF4A
:102AC000FFF7FEBFFFF7FEBFFFF7FEBFFFF7FEBF3A
:102AD000FFF7FEBFFFF7FEBFFFF7FEBFFFF7FEBF2A
:082AE000FFF7FEBFFFF7FEBF88
:04000005080029F1D5
:00000001FF
